{
  "_format": "hh-sol-artifact-1",
  "contractName": "Domains",
  "sourceName": "contracts/Domains.sol",
  "abi": [
    {
      "inputs": [
        {
          "internalType": "string",
          "name": "_tld",
          "type": "string"
        }
      ],
      "stateMutability": "payable",
      "type": "constructor"
    },
    {
      "inputs": [],
      "name": "AlreadyRegistered",
      "type": "error"
    },
    {
      "inputs": [
        {
          "internalType": "string",
          "name": "name",
          "type": "string"
        }
      ],
      "name": "InvalidName",
      "type": "error"
    },
    {
      "inputs": [],
      "name": "Unauthorized",
      "type": "error"
    },
    {
      "anonymous": false,
      "inputs": [
        {
          "indexed": true,
          "internalType": "address",
          "name": "owner",
          "type": "address"
        },
        {
          "indexed": true,
          "internalType": "address",
          "name": "approved",
          "type": "address"
        },
        {
          "indexed": true,
          "internalType": "uint256",
          "name": "tokenId",
          "type": "uint256"
        }
      ],
      "name": "Approval",
      "type": "event"
    },
    {
      "anonymous": false,
      "inputs": [
        {
          "indexed": true,
          "internalType": "address",
          "name": "owner",
          "type": "address"
        },
        {
          "indexed": true,
          "internalType": "address",
          "name": "operator",
          "type": "address"
        },
        {
          "indexed": false,
          "internalType": "bool",
          "name": "approved",
          "type": "bool"
        }
      ],
      "name": "ApprovalForAll",
      "type": "event"
    },
    {
      "anonymous": false,
      "inputs": [
        {
          "indexed": true,
          "internalType": "address",
          "name": "from",
          "type": "address"
        },
        {
          "indexed": true,
          "internalType": "address",
          "name": "to",
          "type": "address"
        },
        {
          "indexed": true,
          "internalType": "uint256",
          "name": "tokenId",
          "type": "uint256"
        }
      ],
      "name": "Transfer",
      "type": "event"
    },
    {
      "inputs": [
        {
          "internalType": "address",
          "name": "to",
          "type": "address"
        },
        {
          "internalType": "uint256",
          "name": "tokenId",
          "type": "uint256"
        }
      ],
      "name": "approve",
      "outputs": [],
      "stateMutability": "nonpayable",
      "type": "function"
    },
    {
      "inputs": [
        {
          "internalType": "address",
          "name": "owner",
          "type": "address"
        }
      ],
      "name": "balanceOf",
      "outputs": [
        {
          "internalType": "uint256",
          "name": "",
          "type": "uint256"
        }
      ],
      "stateMutability": "view",
      "type": "function"
    },
    {
      "inputs": [
        {
          "internalType": "string",
          "name": "",
          "type": "string"
        }
      ],
      "name": "domains",
      "outputs": [
        {
          "internalType": "address",
          "name": "",
          "type": "address"
        }
      ],
      "stateMutability": "view",
      "type": "function"
    },
    {
      "inputs": [
        {
          "internalType": "string",
          "name": "name",
          "type": "string"
        }
      ],
      "name": "getAddress",
      "outputs": [
        {
          "internalType": "address",
          "name": "",
          "type": "address"
        }
      ],
      "stateMutability": "view",
      "type": "function"
    },
    {
      "inputs": [],
      "name": "getAllNames",
      "outputs": [
        {
          "internalType": "string[]",
          "name": "",
          "type": "string[]"
        }
      ],
      "stateMutability": "view",
      "type": "function"
    },
    {
      "inputs": [
        {
          "internalType": "uint256",
          "name": "tokenId",
          "type": "uint256"
        }
      ],
      "name": "getApproved",
      "outputs": [
        {
          "internalType": "address",
          "name": "",
          "type": "address"
        }
      ],
      "stateMutability": "view",
      "type": "function"
    },
    {
      "inputs": [
        {
          "internalType": "string",
          "name": "name",
          "type": "string"
        }
      ],
      "name": "getRecord",
      "outputs": [
        {
          "internalType": "string",
          "name": "",
          "type": "string"
        }
      ],
      "stateMutability": "view",
      "type": "function"
    },
    {
      "inputs": [
        {
          "internalType": "address",
          "name": "owner",
          "type": "address"
        },
        {
          "internalType": "address",
          "name": "operator",
          "type": "address"
        }
      ],
      "name": "isApprovedForAll",
      "outputs": [
        {
          "internalType": "bool",
          "name": "",
          "type": "bool"
        }
      ],
      "stateMutability": "view",
      "type": "function"
    },
    {
      "inputs": [],
      "name": "isOwner",
      "outputs": [
        {
          "internalType": "bool",
          "name": "",
          "type": "bool"
        }
      ],
      "stateMutability": "view",
      "type": "function"
    },
    {
      "inputs": [],
      "name": "name",
      "outputs": [
        {
          "internalType": "string",
          "name": "",
          "type": "string"
        }
      ],
      "stateMutability": "view",
      "type": "function"
    },
    {
      "inputs": [
        {
          "internalType": "uint256",
          "name": "",
          "type": "uint256"
        }
      ],
      "name": "names",
      "outputs": [
        {
          "internalType": "string",
          "name": "",
          "type": "string"
        }
      ],
      "stateMutability": "view",
      "type": "function"
    },
    {
      "inputs": [
        {
          "internalType": "uint256",
          "name": "tokenId",
          "type": "uint256"
        }
      ],
      "name": "ownerOf",
      "outputs": [
        {
          "internalType": "address",
          "name": "",
          "type": "address"
        }
      ],
      "stateMutability": "view",
      "type": "function"
    },
    {
      "inputs": [
        {
          "internalType": "string",
          "name": "name",
          "type": "string"
        }
      ],
      "name": "price",
      "outputs": [
        {
          "internalType": "uint256",
          "name": "",
          "type": "uint256"
        }
      ],
      "stateMutability": "pure",
      "type": "function"
    },
    {
      "inputs": [
        {
          "internalType": "string",
          "name": "",
          "type": "string"
        }
      ],
      "name": "records",
      "outputs": [
        {
          "internalType": "string",
          "name": "",
          "type": "string"
        }
      ],
      "stateMutability": "view",
      "type": "function"
    },
    {
      "inputs": [
        {
          "internalType": "string",
          "name": "name",
          "type": "string"
        }
      ],
      "name": "register",
      "outputs": [],
      "stateMutability": "payable",
      "type": "function"
    },
    {
      "inputs": [
        {
          "internalType": "address",
          "name": "from",
          "type": "address"
        },
        {
          "internalType": "address",
          "name": "to",
          "type": "address"
        },
        {
          "internalType": "uint256",
          "name": "tokenId",
          "type": "uint256"
        }
      ],
      "name": "safeTransferFrom",
      "outputs": [],
      "stateMutability": "nonpayable",
      "type": "function"
    },
    {
      "inputs": [
        {
          "internalType": "address",
          "name": "from",
          "type": "address"
        },
        {
          "internalType": "address",
          "name": "to",
          "type": "address"
        },
        {
          "internalType": "uint256",
          "name": "tokenId",
          "type": "uint256"
        },
        {
          "internalType": "bytes",
          "name": "_data",
          "type": "bytes"
        }
      ],
      "name": "safeTransferFrom",
      "outputs": [],
      "stateMutability": "nonpayable",
      "type": "function"
    },
    {
      "inputs": [
        {
          "internalType": "address",
          "name": "operator",
          "type": "address"
        },
        {
          "internalType": "bool",
          "name": "approved",
          "type": "bool"
        }
      ],
      "name": "setApprovalForAll",
      "outputs": [],
      "stateMutability": "nonpayable",
      "type": "function"
    },
    {
      "inputs": [
        {
          "internalType": "string",
          "name": "name",
          "type": "string"
        },
        {
          "internalType": "string",
          "name": "record",
          "type": "string"
        }
      ],
      "name": "setRecord",
      "outputs": [],
      "stateMutability": "nonpayable",
      "type": "function"
    },
    {
      "inputs": [
        {
          "internalType": "bytes4",
          "name": "interfaceId",
          "type": "bytes4"
        }
      ],
      "name": "supportsInterface",
      "outputs": [
        {
          "internalType": "bool",
          "name": "",
          "type": "bool"
        }
      ],
      "stateMutability": "view",
      "type": "function"
    },
    {
      "inputs": [],
      "name": "symbol",
      "outputs": [
        {
          "internalType": "string",
          "name": "",
          "type": "string"
        }
      ],
      "stateMutability": "view",
      "type": "function"
    },
    {
      "inputs": [],
      "name": "tld",
      "outputs": [
        {
          "internalType": "string",
          "name": "",
          "type": "string"
        }
      ],
      "stateMutability": "view",
      "type": "function"
    },
    {
      "inputs": [
        {
          "internalType": "uint256",
          "name": "tokenId",
          "type": "uint256"
        }
      ],
      "name": "tokenURI",
      "outputs": [
        {
          "internalType": "string",
          "name": "",
          "type": "string"
        }
      ],
      "stateMutability": "view",
      "type": "function"
    },
    {
      "inputs": [
        {
          "internalType": "address",
          "name": "from",
          "type": "address"
        },
        {
          "internalType": "address",
          "name": "to",
          "type": "address"
        },
        {
          "internalType": "uint256",
          "name": "tokenId",
          "type": "uint256"
        }
      ],
      "name": "transferFrom",
      "outputs": [],
      "stateMutability": "nonpayable",
      "type": "function"
    },
    {
      "inputs": [
        {
          "internalType": "string",
          "name": "name",
          "type": "string"
        }
      ],
      "name": "valid",
      "outputs": [
        {
          "internalType": "bool",
          "name": "",
          "type": "bool"
        }
      ],
      "stateMutability": "pure",
      "type": "function"
    },
    {
      "inputs": [],
      "name": "withdraw",
      "outputs": [],
      "stateMutability": "nonpayable",
      "type": "function"
    }
  ],
  "bytecode": "0x6080604052604051806108a0016040528061086b81526020016200532c61086b91396009908051906020019062000038929190620002c8565b506040518060400160405280600d81526020017f3c2f746578743e3c2f7376673e00000000000000000000000000000000000000815250600a908051906020019062000086929190620002c8565b5060405162005b9738038062005b978339818101604052810190620000ac919062000515565b6040518060400160405280601281526020017f5368696e6f204e616d65205365727669636500000000000000000000000000008152506040518060400160405280600381526020017f534e530000000000000000000000000000000000000000000000000000000000815250816000908051906020019062000130929190620002c8565b50806001908051906020019062000149929190620002c8565b50505033600e60006101000a81548173ffffffffffffffffffffffffffffffffffffffff021916908373ffffffffffffffffffffffffffffffffffffffff1602179055508060089080519060200190620001a5929190620002c8565b50620001f26040518060400160405280601881526020017f2573206e616d652073657276696365206465706c6f796564000000000000000081525082620001f960201b62001ba41760201c565b5062000663565b6200029b828260405160240162000212929190620005c3565b6040516020818303038152906040527f4b5c4277000000000000000000000000000000000000000000000000000000007bffffffffffffffffffffffffffffffffffffffffffffffffffffffff19166020820180517bffffffffffffffffffffffffffffffffffffffffffffffffffffffff83818316178352505050506200029f60201b60201c565b5050565b60008151905060006a636f6e736f6c652e6c6f679050602083016000808483855afa5050505050565b828054620002d6906200062d565b90600052602060002090601f016020900481019282620002fa576000855562000346565b82601f106200031557805160ff191683800117855562000346565b8280016001018555821562000346579182015b828111156200034557825182559160200191906001019062000328565b5b50905062000355919062000359565b5090565b5b80821115620003745760008160009055506001016200035a565b5090565b6000604051905090565b600080fd5b600080fd5b600080fd5b600080fd5b6000601f19601f8301169050919050565b7f4e487b7100000000000000000000000000000000000000000000000000000000600052604160045260246000fd5b620003e18262000396565b810181811067ffffffffffffffff82111715620004035762000402620003a7565b5b80604052505050565b60006200041862000378565b9050620004268282620003d6565b919050565b600067ffffffffffffffff821115620004495762000448620003a7565b5b620004548262000396565b9050602081019050919050565b60005b838110156200048157808201518184015260208101905062000464565b8381111562000491576000848401525b50505050565b6000620004ae620004a8846200042b565b6200040c565b905082815260208101848484011115620004cd57620004cc62000391565b5b620004da84828562000461565b509392505050565b600082601f830112620004fa57620004f96200038c565b5b81516200050c84826020860162000497565b91505092915050565b6000602082840312156200052e576200052d62000382565b5b600082015167ffffffffffffffff8111156200054f576200054e62000387565b5b6200055d84828501620004e2565b91505092915050565b600081519050919050565b600082825260208201905092915050565b60006200058f8262000566565b6200059b818562000571565b9350620005ad81856020860162000461565b620005b88162000396565b840191505092915050565b60006040820190508181036000830152620005df818562000582565b90508181036020830152620005f5818462000582565b90509392505050565b7f4e487b7100000000000000000000000000000000000000000000000000000000600052602260045260246000fd5b600060028204905060018216806200064657607f821691505b602082108114156200065d576200065c620005fe565b5b50919050565b614cb980620006736000396000f3fe6080604052600436106101815760003560e01c806370a08231116100d1578063bf40fac11161008a578063e985e9c511610064578063e985e9c5146105de578063f2c298be1461061b578063fb825e5f14610637578063fe2c61981461066257610181565b8063bf40fac11461053b578063c1880a9814610578578063c87b56dd146105a157610181565b806370a08231146104195780638f32d59b1461045657806395d89b41146104815780639791c097146104ac578063a22cb465146104e9578063b88d4fde1461051257610181565b8063264492351161013e57806342842e0e1161011857806342842e0e146103395780634622ab0314610362578063541e771d1461039f5780636352211e146103dc57610181565b806326449235146102ba5780632d551432146102f75780633ccfd60b1461032257610181565b806301ffc9a71461018657806306fdde03146101c3578063081812fc146101ee578063095ea7b31461022b57806311dd88451461025457806323b872dd14610291575b600080fd5b34801561019257600080fd5b506101ad60048036038101906101a89190613089565b61069f565b6040516101ba91906130d1565b60405180910390f35b3480156101cf57600080fd5b506101d8610781565b6040516101e59190613185565b60405180910390f35b3480156101fa57600080fd5b50610215600480360381019061021091906131dd565b610813565b604051610222919061324b565b60405180910390f35b34801561023757600080fd5b50610252600480360381019061024d9190613292565b610898565b005b34801561026057600080fd5b5061027b60048036038101906102769190613337565b6109b0565b6040516102889190613185565b60405180910390f35b34801561029d57600080fd5b506102b860048036038101906102b39190613384565b610a63565b005b3480156102c657600080fd5b506102e160048036038101906102dc9190613507565b610ac3565b6040516102ee919061324b565b60405180910390f35b34801561030357600080fd5b5061030c610b0c565b6040516103199190613185565b60405180910390f35b34801561032e57600080fd5b50610337610b9a565b005b34801561034557600080fd5b50610360600480360381019061035b9190613384565b610ca0565b005b34801561036e57600080fd5b50610389600480360381019061038491906131dd565b610cc0565b6040516103969190613185565b60405180910390f35b3480156103ab57600080fd5b506103c660048036038101906103c19190613507565b610d60565b6040516103d39190613185565b60405180910390f35b3480156103e857600080fd5b5061040360048036038101906103fe91906131dd565b610e16565b604051610410919061324b565b60405180910390f35b34801561042557600080fd5b50610440600480360381019061043b9190613550565b610ec8565b60405161044d919061358c565b60405180910390f35b34801561046257600080fd5b5061046b610f80565b60405161047891906130d1565b60405180910390f35b34801561048d57600080fd5b50610496610fd8565b6040516104a39190613185565b60405180910390f35b3480156104b857600080fd5b506104d360048036038101906104ce9190613337565b61106a565b6040516104e091906130d1565b60405180910390f35b3480156104f557600080fd5b50610510600480360381019061050b91906135d3565b61111e565b005b34801561051e57600080fd5b50610539600480360381019061053491906136b4565b611134565b005b34801561054757600080fd5b50610562600480360381019061055d9190613337565b611196565b60405161056f919061324b565b60405180910390f35b34801561058457600080fd5b5061059f600480360381019061059a9190613737565b6111e1565b005b3480156105ad57600080fd5b506105c860048036038101906105c391906131dd565b6112bc565b6040516105d59190613185565b60405180910390f35b3480156105ea57600080fd5b50610605600480360381019061060091906137b8565b61140e565b60405161061291906130d1565b60405180910390f35b61063560048036038101906106309190613337565b6114a2565b005b34801561064357600080fd5b5061064c611920565b6040516106599190613904565b60405180910390f35b34801561066e57600080fd5b5061068960048036038101906106849190613337565b611afe565b604051610696919061358c565b60405180910390f35b60007f80ac58cd000000000000000000000000000000000000000000000000000000007bffffffffffffffffffffffffffffffffffffffffffffffffffffffff1916827bffffffffffffffffffffffffffffffffffffffffffffffffffffffff1916148061076a57507f5b5e139f000000000000000000000000000000000000000000000000000000007bffffffffffffffffffffffffffffffffffffffffffffffffffffffff1916827bffffffffffffffffffffffffffffffffffffffffffffffffffffffff1916145b8061077a575061077982611c40565b5b9050919050565b60606000805461079090613955565b80601f01602080910402602001604051908101604052809291908181526020018280546107bc90613955565b80156108095780601f106107de57610100808354040283529160200191610809565b820191906000526020600020905b8154815290600101906020018083116107ec57829003601f168201915b5050505050905090565b600061081e82611caa565b61085d576040517f08c379a0000000000000000000000000000000000000000000000000000000008152600401610854906139f9565b60405180910390fd5b6004600083815260200190815260200160002060009054906101000a900473ffffffffffffffffffffffffffffffffffffffff169050919050565b60006108a382610e16565b90508073ffffffffffffffffffffffffffffffffffffffff168373ffffffffffffffffffffffffffffffffffffffff161415610914576040517f08c379a000000000000000000000000000000000000000000000000000000000815260040161090b90613a8b565b60405180910390fd5b8073ffffffffffffffffffffffffffffffffffffffff16610933611d16565b73ffffffffffffffffffffffffffffffffffffffff16148061096257506109618161095c611d16565b61140e565b5b6109a1576040517f08c379a000000000000000000000000000000000000000000000000000000000815260040161099890613b1d565b60405180910390fd5b6109ab8383611d1e565b505050565b6060600c83836040516109c4929190613b6d565b908152602001604051809103902080546109dd90613955565b80601f0160208091040260200160405190810160405280929190818152602001828054610a0990613955565b8015610a565780601f10610a2b57610100808354040283529160200191610a56565b820191906000526020600020905b815481529060010190602001808311610a3957829003601f168201915b5050505050905092915050565b610a74610a6e611d16565b82611dd7565b610ab3576040517f08c379a0000000000000000000000000000000000000000000000000000000008152600401610aaa90613bf8565b60405180910390fd5b610abe838383611eb5565b505050565b600b818051602081018201805184825260208301602085012081835280955050505050506000915054906101000a900473ffffffffffffffffffffffffffffffffffffffff1681565b60088054610b1990613955565b80601f0160208091040260200160405190810160405280929190818152602001828054610b4590613955565b8015610b925780601f10610b6757610100808354040283529160200191610b92565b820191906000526020600020905b815481529060010190602001808311610b7557829003601f168201915b505050505081565b610ba2610f80565b610bab57600080fd5b600047905060003373ffffffffffffffffffffffffffffffffffffffff1682604051610bd690613c49565b60006040518083038185875af1925050503d8060008114610c13576040519150601f19603f3d011682016040523d82523d6000602084013e610c18565b606091505b5050905080610c5c576040517f08c379a0000000000000000000000000000000000000000000000000000000008152600401610c5390613caa565b60405180910390fd5b80610c9c576040517f08c379a0000000000000000000000000000000000000000000000000000000008152600401610c9390613caa565b60405180910390fd5b5050565b610cbb83838360405180602001604052806000815250611134565b505050565b600d6020528060005260406000206000915090508054610cdf90613955565b80601f0160208091040260200160405190810160405280929190818152602001828054610d0b90613955565b8015610d585780601f10610d2d57610100808354040283529160200191610d58565b820191906000526020600020905b815481529060010190602001808311610d3b57829003601f168201915b505050505081565b600c818051602081018201805184825260208301602085012081835280955050505050506000915090508054610d9590613955565b80601f0160208091040260200160405190810160405280929190818152602001828054610dc190613955565b8015610e0e5780601f10610de357610100808354040283529160200191610e0e565b820191906000526020600020905b815481529060010190602001808311610df157829003601f168201915b505050505081565b6000806002600084815260200190815260200160002060009054906101000a900473ffffffffffffffffffffffffffffffffffffffff169050600073ffffffffffffffffffffffffffffffffffffffff168173ffffffffffffffffffffffffffffffffffffffff161415610ebf576040517f08c379a0000000000000000000000000000000000000000000000000000000008152600401610eb690613d3c565b60405180910390fd5b80915050919050565b60008073ffffffffffffffffffffffffffffffffffffffff168273ffffffffffffffffffffffffffffffffffffffff161415610f39576040517f08c379a0000000000000000000000000000000000000000000000000000000008152600401610f3090613dce565b60405180910390fd5b600360008373ffffffffffffffffffffffffffffffffffffffff1673ffffffffffffffffffffffffffffffffffffffff168152602001908152602001600020549050919050565b6000600e60009054906101000a900473ffffffffffffffffffffffffffffffffffffffff1673ffffffffffffffffffffffffffffffffffffffff163373ffffffffffffffffffffffffffffffffffffffff1614905090565b606060018054610fe790613955565b80601f016020809104026020016040519081016040528092919081815260200182805461101390613955565b80156110605780601f1061103557610100808354040283529160200191611060565b820191906000526020600020905b81548152906001019060200180831161104357829003601f168201915b5050505050905090565b600060036110bb84848080601f016020809104026020016040519081016040528093929190818152602001838380828437600081840152601f19601f8201169050808301925050505050505061211c565b101580156111165750600a61111384848080601f016020809104026020016040519081016040528093929190818152602001838380828437600081840152601f19601f8201169050808301925050505050505061211c565b11155b905092915050565b611130611129611d16565b83836122d1565b5050565b61114561113f611d16565b83611dd7565b611184576040517f08c379a000000000000000000000000000000000000000000000000000000000815260040161117b90613bf8565b60405180910390fd5b6111908484848461243e565b50505050565b6000600b83836040516111aa929190613b6d565b908152602001604051809103902060009054906101000a900473ffffffffffffffffffffffffffffffffffffffff16905092915050565b600b84846040516111f3929190613b6d565b908152602001604051809103902060009054906101000a900473ffffffffffffffffffffffffffffffffffffffff1673ffffffffffffffffffffffffffffffffffffffff163373ffffffffffffffffffffffffffffffffffffffff1614611286576040517f82b4290000000000000000000000000000000000000000000000000000000000815260040160405180910390fd5b8181600c868660405161129a929190613b6d565b908152602001604051809103902091906112b5929190612ef4565b5050505050565b60606112c782611caa565b611306576040517f08c379a00000000000000000000000000000000000000000000000000000000081526004016112fd90613e60565b60405180910390fd5b600060066000848152602001908152602001600020805461132690613955565b80601f016020809104026020016040519081016040528092919081815260200182805461135290613955565b801561139f5780601f106113745761010080835404028352916020019161139f565b820191906000526020600020905b81548152906001019060200180831161138257829003601f168201915b5050505050905060006113b061249a565b90506000815114156113c6578192505050611409565b6000825111156113fb5780826040516020016113e3929190613eb1565b60405160208183030381529060405292505050611409565b611404846124b1565b925050505b919050565b6000600560008473ffffffffffffffffffffffffffffffffffffffff1673ffffffffffffffffffffffffffffffffffffffff16815260200190815260200160002060008373ffffffffffffffffffffffffffffffffffffffff1673ffffffffffffffffffffffffffffffffffffffff16815260200190815260200160002060009054906101000a900460ff16905092915050565b600073ffffffffffffffffffffffffffffffffffffffff16600b83836040516114cc929190613b6d565b908152602001604051809103902060009054906101000a900473ffffffffffffffffffffffffffffffffffffffff1673ffffffffffffffffffffffffffffffffffffffff1614611548576040517f3a81d6fc00000000000000000000000000000000000000000000000000000000815260040160405180910390fd5b611552828261106a565b6115955781816040517f7f19f48d00000000000000000000000000000000000000000000000000000000815260040161158c929190613f02565b60405180910390fd5b60006115a18383611afe565b9050803410156115e6576040517f08c379a00000000000000000000000000000000000000000000000000000000081526004016115dd90613f72565b60405180910390fd5b6000838360086040516020016115fe93929190614072565b60405160208183030381529060405290506000600982600a604051602001611628939291906140a3565b604051602081830303815290604052905060006116456007612558565b9050600061169687878080601f016020809104026020016040519081016040528093929190818152602001838380828437600081840152601f19601f8201169050808301925050505050505061211c565b905060006116a382612566565b9050611797604051806060016040528060318152602001614bda6031913989898080601f016020809104026020016040519081016040528093929190818152602001838380828437600081840152601f19601f820116905080830192505050505050506008805461171390613955565b80601f016020809104026020016040519081016040528092919081815260200182805461173f90613955565b801561178c5780601f106117615761010080835404028352916020019161178c565b820191906000526020600020905b81548152906001019060200180831161176f57829003601f168201915b5050505050866126c7565b60006117cd866117a687612769565b846040516020016117b993929190614250565b604051602081830303815290604052612769565b90506000816040516020016117e291906142f9565b6040516020818303038152906040529050611814604051806060016040528060398152602001614ba160399139612901565b6118536040518060400160405280600e81526020017f46696e616c20746f6b656e55524900000000000000000000000000000000000081525082611ba4565b611874604051806060016040528060398152602001614c0b60399139612901565b61187e338661299a565b61188885826129b8565b33600b8b8b60405161189b929190613b6d565b908152602001604051809103902060006101000a81548173ffffffffffffffffffffffffffffffffffffffff021916908373ffffffffffffffffffffffffffffffffffffffff1602179055508989600d60008881526020019081526020016000209190611909929190612ef4565b506119146007612a2c565b50505050505050505050565b60606119606040518060400160405280601f81526020017f47657474696e6720616c6c206e616d65732066726f6d20636f6e747261637400815250612901565b600061196c6007612558565b67ffffffffffffffff811115611985576119846133dc565b5b6040519080825280602002602001820160405280156119b857816020015b60608152602001906001900390816119a35790505b50905060005b6119c86007612558565b811015611af657600d600082815260200190815260200160002080546119ed90613955565b80601f0160208091040260200160405190810160405280929190818152602001828054611a1990613955565b8015611a665780601f10611a3b57610100808354040283529160200191611a66565b820191906000526020600020905b815481529060010190602001808311611a4957829003601f168201915b5050505050828281518110611a7e57611a7d61431b565b5b6020026020010181905250611ae36040518060400160405280601781526020017f4e616d6520666f7220746f6b656e20256420697320257300000000000000000081525082848481518110611ad657611ad561431b565b5b6020026020010151612a42565b8080611aee90614379565b9150506119be565b508091505090565b600080611b4e84848080601f016020809104026020016040519081016040528093929190818152602001838380828437600081840152601f19601f8201169050808301925050505050505061211c565b905060008111611b5d57600080fd5b6003811415611b77576706f05b59d3b20000915050611b9e565b6004811415611b9157670429d069189e0000915050611b9e565b67016345785d8a00009150505b92915050565b611c3c8282604051602401611bba9291906143c2565b6040516020818303038152906040527f4b5c4277000000000000000000000000000000000000000000000000000000007bffffffffffffffffffffffffffffffffffffffffffffffffffffffff19166020820180517bffffffffffffffffffffffffffffffffffffffffffffffffffffffff8381831617835250505050612ae1565b5050565b60007f01ffc9a7000000000000000000000000000000000000000000000000000000007bffffffffffffffffffffffffffffffffffffffffffffffffffffffff1916827bffffffffffffffffffffffffffffffffffffffffffffffffffffffff1916149050919050565b60008073ffffffffffffffffffffffffffffffffffffffff166002600084815260200190815260200160002060009054906101000a900473ffffffffffffffffffffffffffffffffffffffff1673ffffffffffffffffffffffffffffffffffffffff1614159050919050565b600033905090565b816004600083815260200190815260200160002060006101000a81548173ffffffffffffffffffffffffffffffffffffffff021916908373ffffffffffffffffffffffffffffffffffffffff160217905550808273ffffffffffffffffffffffffffffffffffffffff16611d9183610e16565b73ffffffffffffffffffffffffffffffffffffffff167f8c5be1e5ebec7d5bd14f71427d1e84f3dd0314c0f7b2291e5b200ac8c7c3b92560405160405180910390a45050565b6000611de282611caa565b611e21576040517f08c379a0000000000000000000000000000000000000000000000000000000008152600401611e189061446b565b60405180910390fd5b6000611e2c83610e16565b90508073ffffffffffffffffffffffffffffffffffffffff168473ffffffffffffffffffffffffffffffffffffffff161480611e6e5750611e6d818561140e565b5b80611eac57508373ffffffffffffffffffffffffffffffffffffffff16611e9484610813565b73ffffffffffffffffffffffffffffffffffffffff16145b91505092915050565b8273ffffffffffffffffffffffffffffffffffffffff16611ed582610e16565b73ffffffffffffffffffffffffffffffffffffffff1614611f2b576040517f08c379a0000000000000000000000000000000000000000000000000000000008152600401611f22906144fd565b60405180910390fd5b600073ffffffffffffffffffffffffffffffffffffffff168273ffffffffffffffffffffffffffffffffffffffff161415611f9b576040517f08c379a0000000000000000000000000000000000000000000000000000000008152600401611f929061458f565b60405180910390fd5b611fa6838383612b0a565b611fb1600082611d1e565b6001600360008573ffffffffffffffffffffffffffffffffffffffff1673ffffffffffffffffffffffffffffffffffffffff168152602001908152602001600020600082825461200191906145af565b925050819055506001600360008473ffffffffffffffffffffffffffffffffffffffff1673ffffffffffffffffffffffffffffffffffffffff168152602001908152602001600020600082825461205891906145e3565b92505081905550816002600083815260200190815260200160002060006101000a81548173ffffffffffffffffffffffffffffffffffffffff021916908373ffffffffffffffffffffffffffffffffffffffff160217905550808273ffffffffffffffffffffffffffffffffffffffff168473ffffffffffffffffffffffffffffffffffffffff167fddf252ad1be2c89b69c2b068fc378daa952ba7f163c4a11628f55a4df523b3ef60405160405180910390a4612117838383612b0f565b505050565b60008060008084519050600092505b808210156122c65760008583815181106121485761214761431b565b5b602001015160f81c60f81b9050608060f81b817effffffffffffffffffffffffffffffffffffffffffffffffffffffffffffff191610156121975760018361219091906145e3565b92506122b2565b60e060f81b817effffffffffffffffffffffffffffffffffffffffffffffffffffffffffffff191610156121d9576002836121d291906145e3565b92506122b1565b60f060f81b817effffffffffffffffffffffffffffffffffffffffffffffffffffffffffffff1916101561221b5760038361221491906145e3565b92506122b0565b60f8801b817effffffffffffffffffffffffffffffffffffffffffffffffffffffffffffff1916101561225c5760048361225591906145e3565b92506122af565b60fc60f81b817effffffffffffffffffffffffffffffffffffffffffffffffffffffffffffff1916101561229e5760058361229791906145e3565b92506122ae565b6006836122ab91906145e3565b92505b5b5b5b5b5082806122be90614379565b93505061212b565b829350505050919050565b8173ffffffffffffffffffffffffffffffffffffffff168373ffffffffffffffffffffffffffffffffffffffff161415612340576040517f08c379a000000000000000000000000000000000000000000000000000000000815260040161233790614685565b60405180910390fd5b80600560008573ffffffffffffffffffffffffffffffffffffffff1673ffffffffffffffffffffffffffffffffffffffff16815260200190815260200160002060008473ffffffffffffffffffffffffffffffffffffffff1673ffffffffffffffffffffffffffffffffffffffff16815260200190815260200160002060006101000a81548160ff0219169083151502179055508173ffffffffffffffffffffffffffffffffffffffff168373ffffffffffffffffffffffffffffffffffffffff167f17307eab39ab6107e8899845ad3d59bd9653f200f220920489ca2b5937696c318360405161243191906130d1565b60405180910390a3505050565b612449848484611eb5565b61245584848484612b14565b612494576040517f08c379a000000000000000000000000000000000000000000000000000000000815260040161248b90614717565b60405180910390fd5b50505050565b606060405180602001604052806000815250905090565b60606124bc82611caa565b6124fb576040517f08c379a00000000000000000000000000000000000000000000000000000000081526004016124f2906147a9565b60405180910390fd5b600061250561249a565b905060008151116125255760405180602001604052806000815250612550565b8061252f84612566565b604051602001612540929190613eb1565b6040516020818303038152906040525b915050919050565b600081600001549050919050565b606060008214156125ae576040518060400160405280600181526020017f300000000000000000000000000000000000000000000000000000000000000081525090506126c2565b600082905060005b600082146125e05780806125c990614379565b915050600a826125d991906147f8565b91506125b6565b60008167ffffffffffffffff8111156125fc576125fb6133dc565b5b6040519080825280601f01601f19166020018201604052801561262e5781602001600182028036833780820191505090505b5090505b600085146126bb5760018261264791906145af565b9150600a856126569190614829565b603061266291906145e3565b60f81b8183815181106126785761267761431b565b5b60200101907effffffffffffffffffffffffffffffffffffffffffffffffffffffffffffff1916908160001a905350600a856126b491906147f8565b9450612632565b8093505050505b919050565b612763848484846040516024016126e1949392919061485a565b6040516020818303038152906040527f9fd009f5000000000000000000000000000000000000000000000000000000007bffffffffffffffffffffffffffffffffffffffffffffffffffffffff19166020820180517bffffffffffffffffffffffffffffffffffffffffffffffffffffffff8381831617835250505050612ae1565b50505050565b6060600082519050600081141561279257604051806020016040528060008152509150506128fc565b600060036002836127a391906145e3565b6127ad91906147f8565b60046127b991906148b4565b905060006020826127ca91906145e3565b67ffffffffffffffff8111156127e3576127e26133dc565b5b6040519080825280601f01601f1916602001820160405280156128155781602001600182028036833780820191505090505b5090506000604051806060016040528060408152602001614c44604091399050600181016020830160005b868110156128b95760038101905062ffffff818a015116603f8160121c168401518060081b905060ff603f83600c1c1686015116810190508060081b905060ff603f8360061c1686015116810190508060081b905060ff603f831686015116810190508060e01b90508084526004840193505050612840565b5060038606600181146128d357600281146128e3576128ee565b613d3d60f01b60028303526128ee565b603d60f81b60018303525b508484525050819450505050505b919050565b612997816040516024016129159190613185565b6040516020818303038152906040527f41304fac000000000000000000000000000000000000000000000000000000007bffffffffffffffffffffffffffffffffffffffffffffffffffffffff19166020820180517bffffffffffffffffffffffffffffffffffffffffffffffffffffffff8381831617835250505050612ae1565b50565b6129b4828260405180602001604052806000815250612c9c565b5050565b6129c182611caa565b612a00576040517f08c379a00000000000000000000000000000000000000000000000000000000081526004016129f790614980565b60405180910390fd5b80600660008481526020019081526020016000209080519060200190612a27929190612f7a565b505050565b6001816000016000828254019250508190555050565b612adc838383604051602401612a5a939291906149a0565b6040516020818303038152906040527fa3f5c739000000000000000000000000000000000000000000000000000000007bffffffffffffffffffffffffffffffffffffffffffffffffffffffff19166020820180517bffffffffffffffffffffffffffffffffffffffffffffffffffffffff8381831617835250505050612ae1565b505050565b60008151905060006a636f6e736f6c652e6c6f679050602083016000808483855afa5050505050565b505050565b505050565b6000612b358473ffffffffffffffffffffffffffffffffffffffff16612cf7565b15612c8f578373ffffffffffffffffffffffffffffffffffffffff1663150b7a02612b5e611d16565b8786866040518563ffffffff1660e01b8152600401612b809493929190614a3a565b6020604051808303816000875af1925050508015612bbc57506040513d601f19601f82011682018060405250810190612bb99190614a9b565b60015b612c3f573d8060008114612bec576040519150601f19603f3d011682016040523d82523d6000602084013e612bf1565b606091505b50600081511415612c37576040517f08c379a0000000000000000000000000000000000000000000000000000000008152600401612c2e90614717565b60405180910390fd5b805181602001fd5b63150b7a0260e01b7bffffffffffffffffffffffffffffffffffffffffffffffffffffffff1916817bffffffffffffffffffffffffffffffffffffffffffffffffffffffff191614915050612c94565b600190505b949350505050565b612ca68383612d1a565b612cb36000848484612b14565b612cf2576040517f08c379a0000000000000000000000000000000000000000000000000000000008152600401612ce990614717565b60405180910390fd5b505050565b6000808273ffffffffffffffffffffffffffffffffffffffff163b119050919050565b600073ffffffffffffffffffffffffffffffffffffffff168273ffffffffffffffffffffffffffffffffffffffff161415612d8a576040517f08c379a0000000000000000000000000000000000000000000000000000000008152600401612d8190614b14565b60405180910390fd5b612d9381611caa565b15612dd3576040517f08c379a0000000000000000000000000000000000000000000000000000000008152600401612dca90614b80565b60405180910390fd5b612ddf60008383612b0a565b6001600360008473ffffffffffffffffffffffffffffffffffffffff1673ffffffffffffffffffffffffffffffffffffffff1681526020019081526020016000206000828254612e2f91906145e3565b92505081905550816002600083815260200190815260200160002060006101000a81548173ffffffffffffffffffffffffffffffffffffffff021916908373ffffffffffffffffffffffffffffffffffffffff160217905550808273ffffffffffffffffffffffffffffffffffffffff16600073ffffffffffffffffffffffffffffffffffffffff167fddf252ad1be2c89b69c2b068fc378daa952ba7f163c4a11628f55a4df523b3ef60405160405180910390a4612ef060008383612b0f565b5050565b828054612f0090613955565b90600052602060002090601f016020900481019282612f225760008555612f69565b82601f10612f3b57803560ff1916838001178555612f69565b82800160010185558215612f69579182015b82811115612f68578235825591602001919060010190612f4d565b5b509050612f769190613000565b5090565b828054612f8690613955565b90600052602060002090601f016020900481019282612fa85760008555612fef565b82601f10612fc157805160ff1916838001178555612fef565b82800160010185558215612fef579182015b82811115612fee578251825591602001919060010190612fd3565b5b509050612ffc9190613000565b5090565b5b80821115613019576000816000905550600101613001565b5090565b6000604051905090565b600080fd5b600080fd5b60007fffffffff0000000000000000000000000000000000000000000000000000000082169050919050565b61306681613031565b811461307157600080fd5b50565b6000813590506130838161305d565b92915050565b60006020828403121561309f5761309e613027565b5b60006130ad84828501613074565b91505092915050565b60008115159050919050565b6130cb816130b6565b82525050565b60006020820190506130e660008301846130c2565b92915050565b600081519050919050565b600082825260208201905092915050565b60005b8381101561312657808201518184015260208101905061310b565b83811115613135576000848401525b50505050565b6000601f19601f8301169050919050565b6000613157826130ec565b61316181856130f7565b9350613171818560208601613108565b61317a8161313b565b840191505092915050565b6000602082019050818103600083015261319f818461314c565b905092915050565b6000819050919050565b6131ba816131a7565b81146131c557600080fd5b50565b6000813590506131d7816131b1565b92915050565b6000602082840312156131f3576131f2613027565b5b6000613201848285016131c8565b91505092915050565b600073ffffffffffffffffffffffffffffffffffffffff82169050919050565b60006132358261320a565b9050919050565b6132458161322a565b82525050565b6000602082019050613260600083018461323c565b92915050565b61326f8161322a565b811461327a57600080fd5b50565b60008135905061328c81613266565b92915050565b600080604083850312156132a9576132a8613027565b5b60006132b78582860161327d565b92505060206132c8858286016131c8565b9150509250929050565b600080fd5b600080fd5b600080fd5b60008083601f8401126132f7576132f66132d2565b5b8235905067ffffffffffffffff811115613314576133136132d7565b5b6020830191508360018202830111156133305761332f6132dc565b5b9250929050565b6000806020838503121561334e5761334d613027565b5b600083013567ffffffffffffffff81111561336c5761336b61302c565b5b613378858286016132e1565b92509250509250929050565b60008060006060848603121561339d5761339c613027565b5b60006133ab8682870161327d565b93505060206133bc8682870161327d565b92505060406133cd868287016131c8565b9150509250925092565b600080fd5b7f4e487b7100000000000000000000000000000000000000000000000000000000600052604160045260246000fd5b6134148261313b565b810181811067ffffffffffffffff82111715613433576134326133dc565b5b80604052505050565b600061344661301d565b9050613452828261340b565b919050565b600067ffffffffffffffff821115613472576134716133dc565b5b61347b8261313b565b9050602081019050919050565b82818337600083830152505050565b60006134aa6134a584613457565b61343c565b9050828152602081018484840111156134c6576134c56133d7565b5b6134d1848285613488565b509392505050565b600082601f8301126134ee576134ed6132d2565b5b81356134fe848260208601613497565b91505092915050565b60006020828403121561351d5761351c613027565b5b600082013567ffffffffffffffff81111561353b5761353a61302c565b5b613547848285016134d9565b91505092915050565b60006020828403121561356657613565613027565b5b60006135748482850161327d565b91505092915050565b613586816131a7565b82525050565b60006020820190506135a1600083018461357d565b92915050565b6135b0816130b6565b81146135bb57600080fd5b50565b6000813590506135cd816135a7565b92915050565b600080604083850312156135ea576135e9613027565b5b60006135f88582860161327d565b9250506020613609858286016135be565b9150509250929050565b600067ffffffffffffffff82111561362e5761362d6133dc565b5b6136378261313b565b9050602081019050919050565b600061365761365284613613565b61343c565b905082815260208101848484011115613673576136726133d7565b5b61367e848285613488565b509392505050565b600082601f83011261369b5761369a6132d2565b5b81356136ab848260208601613644565b91505092915050565b600080600080608085870312156136ce576136cd613027565b5b60006136dc8782880161327d565b94505060206136ed8782880161327d565b93505060406136fe878288016131c8565b925050606085013567ffffffffffffffff81111561371f5761371e61302c565b5b61372b87828801613686565b91505092959194509250565b6000806000806040858703121561375157613750613027565b5b600085013567ffffffffffffffff81111561376f5761376e61302c565b5b61377b878288016132e1565b9450945050602085013567ffffffffffffffff81111561379e5761379d61302c565b5b6137aa878288016132e1565b925092505092959194509250565b600080604083850312156137cf576137ce613027565b5b60006137dd8582860161327d565b92505060206137ee8582860161327d565b9150509250929050565b600081519050919050565b600082825260208201905092915050565b6000819050602082019050919050565b600082825260208201905092915050565b6000613840826130ec565b61384a8185613824565b935061385a818560208601613108565b6138638161313b565b840191505092915050565b600061387a8383613835565b905092915050565b6000602082019050919050565b600061389a826137f8565b6138a48185613803565b9350836020820285016138b685613814565b8060005b858110156138f257848403895281516138d3858261386e565b94506138de83613882565b925060208a019950506001810190506138ba565b50829750879550505050505092915050565b6000602082019050818103600083015261391e818461388f565b905092915050565b7f4e487b7100000000000000000000000000000000000000000000000000000000600052602260045260246000fd5b6000600282049050600182168061396d57607f821691505b6020821081141561398157613980613926565b5b50919050565b7f4552433732313a20617070726f76656420717565727920666f72206e6f6e657860008201527f697374656e7420746f6b656e0000000000000000000000000000000000000000602082015250565b60006139e3602c836130f7565b91506139ee82613987565b604082019050919050565b60006020820190508181036000830152613a12816139d6565b9050919050565b7f4552433732313a20617070726f76616c20746f2063757272656e74206f776e6560008201527f7200000000000000000000000000000000000000000000000000000000000000602082015250565b6000613a756021836130f7565b9150613a8082613a19565b604082019050919050565b60006020820190508181036000830152613aa481613a68565b9050919050565b7f4552433732313a20617070726f76652063616c6c6572206973206e6f74206f7760008201527f6e6572206e6f7220617070726f76656420666f7220616c6c0000000000000000602082015250565b6000613b076038836130f7565b9150613b1282613aab565b604082019050919050565b60006020820190508181036000830152613b3681613afa565b9050919050565b600081905092915050565b6000613b548385613b3d565b9350613b61838584613488565b82840190509392505050565b6000613b7a828486613b48565b91508190509392505050565b7f4552433732313a207472616e736665722063616c6c6572206973206e6f74206f60008201527f776e6572206e6f7220617070726f766564000000000000000000000000000000602082015250565b6000613be26031836130f7565b9150613bed82613b86565b604082019050919050565b60006020820190508181036000830152613c1181613bd5565b9050919050565b600081905092915050565b50565b6000613c33600083613c18565b9150613c3e82613c23565b600082019050919050565b6000613c5482613c26565b9150819050919050565b7f4661696c656420746f207769746864726177204d617469630000000000000000600082015250565b6000613c946018836130f7565b9150613c9f82613c5e565b602082019050919050565b60006020820190508181036000830152613cc381613c87565b9050919050565b7f4552433732313a206f776e657220717565727920666f72206e6f6e657869737460008201527f656e7420746f6b656e0000000000000000000000000000000000000000000000602082015250565b6000613d266029836130f7565b9150613d3182613cca565b604082019050919050565b60006020820190508181036000830152613d5581613d19565b9050919050565b7f4552433732313a2062616c616e636520717565727920666f7220746865207a6560008201527f726f206164647265737300000000000000000000000000000000000000000000602082015250565b6000613db8602a836130f7565b9150613dc382613d5c565b604082019050919050565b60006020820190508181036000830152613de781613dab565b9050919050565b7f45524337323155524953746f726167653a2055524920717565727920666f722060008201527f6e6f6e6578697374656e7420746f6b656e000000000000000000000000000000602082015250565b6000613e4a6031836130f7565b9150613e5582613dee565b604082019050919050565b60006020820190508181036000830152613e7981613e3d565b9050919050565b6000613e8b826130ec565b613e958185613b3d565b9350613ea5818560208601613108565b80840191505092915050565b6000613ebd8285613e80565b9150613ec98284613e80565b91508190509392505050565b6000613ee183856130f7565b9350613eee838584613488565b613ef78361313b565b840190509392505050565b60006020820190508181036000830152613f1d818486613ed5565b90509392505050565b7f4e6f7420656e6f756768204d6174696320706169640000000000000000000000600082015250565b6000613f5c6015836130f7565b9150613f6782613f26565b602082019050919050565b60006020820190508181036000830152613f8b81613f4f565b9050919050565b7f2e00000000000000000000000000000000000000000000000000000000000000600082015250565b6000613fc8600183613b3d565b9150613fd382613f92565b600182019050919050565b60008190508160005260206000209050919050565b6000815461400081613955565b61400a8186613b3d565b94506001821660008114614025576001811461403657614069565b60ff19831686528186019350614069565b61403f85613fde565b60005b8381101561406157815481890152600182019150602081019050614042565b838801955050505b50505092915050565b600061407f828587613b48565b915061408a82613fbb565b91506140968284613ff3565b9150819050949350505050565b60006140af8286613ff3565b91506140bb8285613e80565b91506140c78284613ff3565b9150819050949350505050565b7f7b226e616d65223a202200000000000000000000000000000000000000000000600082015250565b600061410a600a83613b3d565b9150614115826140d4565b600a82019050919050565b7f222c20226465736372697074696f6e223a20224120646f6d61696e206f6e207460008201527f686520596f6c6f206e616d652073657276696365222c2022696d616765223a2060208201527f22646174613a696d6167652f7376672b786d6c3b6261736536342c0000000000604082015250565b60006141a2605b83613b3d565b91506141ad82614120565b605b82019050919050565b7f222c226c656e677468223a220000000000000000000000000000000000000000600082015250565b60006141ee600c83613b3d565b91506141f9826141b8565b600c82019050919050565b7f227d000000000000000000000000000000000000000000000000000000000000600082015250565b600061423a600283613b3d565b915061424582614204565b600282019050919050565b600061425b826140fd565b91506142678286613e80565b915061427282614195565b915061427e8285613e80565b9150614289826141e1565b91506142958284613e80565b91506142a08261422d565b9150819050949350505050565b7f646174613a6170706c69636174696f6e2f6a736f6e3b6261736536342c000000600082015250565b60006142e3601d83613b3d565b91506142ee826142ad565b601d82019050919050565b6000614304826142d6565b91506143108284613e80565b915081905092915050565b7f4e487b7100000000000000000000000000000000000000000000000000000000600052603260045260246000fd5b7f4e487b7100000000000000000000000000000000000000000000000000000000600052601160045260246000fd5b6000614384826131a7565b91507fffffffffffffffffffffffffffffffffffffffffffffffffffffffffffffffff8214156143b7576143b661434a565b5b600182019050919050565b600060408201905081810360008301526143dc818561314c565b905081810360208301526143f0818461314c565b90509392505050565b7f4552433732313a206f70657261746f7220717565727920666f72206e6f6e657860008201527f697374656e7420746f6b656e0000000000000000000000000000000000000000602082015250565b6000614455602c836130f7565b9150614460826143f9565b604082019050919050565b6000602082019050818103600083015261448481614448565b9050919050565b7f4552433732313a207472616e736665722066726f6d20696e636f72726563742060008201527f6f776e6572000000000000000000000000000000000000000000000000000000602082015250565b60006144e76025836130f7565b91506144f28261448b565b604082019050919050565b60006020820190508181036000830152614516816144da565b9050919050565b7f4552433732313a207472616e7366657220746f20746865207a65726f2061646460008201527f7265737300000000000000000000000000000000000000000000000000000000602082015250565b60006145796024836130f7565b91506145848261451d565b604082019050919050565b600060208201905081810360008301526145a88161456c565b9050919050565b60006145ba826131a7565b91506145c5836131a7565b9250828210156145d8576145d761434a565b5b828203905092915050565b60006145ee826131a7565b91506145f9836131a7565b9250827fffffffffffffffffffffffffffffffffffffffffffffffffffffffffffffffff0382111561462e5761462d61434a565b5b828201905092915050565b7f4552433732313a20617070726f766520746f2063616c6c657200000000000000600082015250565b600061466f6019836130f7565b915061467a82614639565b602082019050919050565b6000602082019050818103600083015261469e81614662565b9050919050565b7f4552433732313a207472616e7366657220746f206e6f6e20455243373231526560008201527f63656976657220696d706c656d656e7465720000000000000000000000000000602082015250565b60006147016032836130f7565b915061470c826146a5565b604082019050919050565b60006020820190508181036000830152614730816146f4565b9050919050565b7f4552433732314d657461646174613a2055524920717565727920666f72206e6f60008201527f6e6578697374656e7420746f6b656e0000000000000000000000000000000000602082015250565b6000614793602f836130f7565b915061479e82614737565b604082019050919050565b600060208201905081810360008301526147c281614786565b9050919050565b7f4e487b7100000000000000000000000000000000000000000000000000000000600052601260045260246000fd5b6000614803826131a7565b915061480e836131a7565b92508261481e5761481d6147c9565b5b828204905092915050565b6000614834826131a7565b915061483f836131a7565b92508261484f5761484e6147c9565b5b828206905092915050565b60006080820190508181036000830152614874818761314c565b90508181036020830152614888818661314c565b9050818103604083015261489c818561314c565b90506148ab606083018461357d565b95945050505050565b60006148bf826131a7565b91506148ca836131a7565b9250817fffffffffffffffffffffffffffffffffffffffffffffffffffffffffffffffff04831182151516156149035761490261434a565b5b828202905092915050565b7f45524337323155524953746f726167653a2055524920736574206f66206e6f6e60008201527f6578697374656e7420746f6b656e000000000000000000000000000000000000602082015250565b600061496a602e836130f7565b91506149758261490e565b604082019050919050565b600060208201905081810360008301526149998161495d565b9050919050565b600060608201905081810360008301526149ba818661314c565b90506149c9602083018561357d565b81810360408301526149db818461314c565b9050949350505050565b600081519050919050565b600082825260208201905092915050565b6000614a0c826149e5565b614a1681856149f0565b9350614a26818560208601613108565b614a2f8161313b565b840191505092915050565b6000608082019050614a4f600083018761323c565b614a5c602083018661323c565b614a69604083018561357d565b8181036060830152614a7b8184614a01565b905095945050505050565b600081519050614a958161305d565b92915050565b600060208284031215614ab157614ab0613027565b5b6000614abf84828501614a86565b91505092915050565b7f4552433732313a206d696e7420746f20746865207a65726f2061646472657373600082015250565b6000614afe6020836130f7565b9150614b0982614ac8565b602082019050919050565b60006020820190508181036000830152614b2d81614af1565b9050919050565b7f4552433732313a20746f6b656e20616c7265616479206d696e74656400000000600082015250565b6000614b6a601c836130f7565b9150614b7582614b34565b602082019050919050565b60006020820190508181036000830152614b9981614b5d565b905091905056fe0a2d2d2d2d2d2d2d2d2d2d2d2d2d2d2d2d2d2d2d2d2d2d2d2d2d2d2d2d2d2d2d2d2d2d2d2d2d2d2d2d2d2d2d2d2d2d2d2d2d2d2d2d2d2d2d2d5265676973746572696e672025732e2573206f6e2074686520636f6e7472616374207769746820746f6b656e49442025642d2d2d2d2d2d2d2d2d2d2d2d2d2d2d2d2d2d2d2d2d2d2d2d2d2d2d2d2d2d2d2d2d2d2d2d2d2d2d2d2d2d2d2d2d2d2d2d2d2d2d2d2d2d2d2d0a4142434445464748494a4b4c4d4e4f505152535455565758595a6162636465666768696a6b6c6d6e6f707172737475767778797a303132333435363738392b2fa2646970667358221220be69d8af9e0ccd53f9771571815298ace7f9d783448a3287b28ee422e8c7537764736f6c634300080a00333c73766720786d6c6e733d22687474703a2f2f7777772e77332e6f72672f323030302f737667222077696474683d2232373022206865696768743d22323730222066696c6c3d226e6f6e65223e3c706174682066696c6c3d2275726c282342292220643d224d302030683237307632373048307a222f3e3c646566733e3c66696c7465722069643d22412220636f6c6f722d696e746572706f6c6174696f6e2d66696c746572733d2273524742222066696c746572556e6974733d227573657253706163654f6e55736522206865696768743d22323730222077696474683d22323730223e3c666544726f70536861646f772064783d2230222064793d22312220737464446576696174696f6e3d22322220666c6f6f642d6f7061636974793d222e323235222077696474683d223230302522206865696768743d2232303025222f3e3c2f66696c7465723e3c2f646566733e3c7061746820643d224d37322e3836332034322e393439632d2e3636382d2e3338372d312e3432362d2e35392d322e3139372d2e3539732d312e3532392e3230342d322e3139372e35396c2d31302e30383120362e3033322d362e383520332e3933342d31302e30383120362e303332632d2e3636382e3338372d312e3432362e35392d322e3139372e3539732d312e3532392d2e3230342d322e3139372d2e35396c2d382e3031332d342e37323161342e353220342e35322030203020312d312e3538392d312e363136632d2e3338342d2e3636352d2e3539342d312e3431382d2e3630382d322e313837762d392e3331632d2e3031332d2e3737352e3138352d312e3533382e3537322d322e32303861342e323520342e323520302030203120312e3632352d312e3539356c372e3838342d342e3539632e3636382d2e33383720312e3432362d2e353920322e3139372d2e353973312e3532392e32303420322e3139372e35396c372e38383420342e353961342e353220342e353220302030203120312e35383920312e363136632e3338342e3636352e35393420312e3431382e36303820322e31383776362e3033326c362e38352d342e303635762d362e303332632e3031332d2e3737352d2e3138352d312e3533382d2e3537322d322e32303861342e323520342e32352030203020302d312e3632352d312e3539354c34312e3435362032342e3539632d2e3636382d2e3338372d312e3432362d2e35392d322e3139372d2e3539732d312e3532392e3230342d322e3139372e35396c2d31342e38363420382e36353561342e323520342e32352030203020302d312e36323520312e353935632d2e3338372e36372d2e35383520312e3433342d2e35373220322e3230387631372e343431632d2e3031332e3737352e31383520312e3533382e35373220322e32303861342e323520342e323520302030203020312e36323520312e3539356c31342e38363420382e363535632e3636382e33383720312e3432362e353920322e3139372e353973312e3532392d2e32303420322e3139372d2e35396c31302e3038312d352e39303120362e38352d342e3036352031302e3038312d352e393031632e3636382d2e33383720312e3432362d2e353920322e3139372d2e353973312e3532392e32303420322e3139372e35396c372e38383420342e353961342e353220342e353220302030203120312e35383920312e363136632e3338342e3636352e35393420312e3431382e36303820322e31383776392e333131632e3031332e3737352d2e31383520312e3533382d2e35373220322e32303861342e323520342e32352030203020312d312e36323520312e3539356c2d372e38383420342e373231632d2e3636382e3338372d312e3432362e35392d322e3139372e3539732d312e3532392d2e3230342d322e3139372d2e35396c2d372e3838342d342e353961342e353220342e35322030203020312d312e3538392d312e363136632d2e3338352d2e3636352d2e3539342d312e3431382d2e3630382d322e313837762d362e3033326c2d362e383520342e30363576362e303332632d2e3031332e3737352e31383520312e3533382e35373220322e32303861342e323520342e323520302030203020312e36323520312e3539356c31342e38363420382e363535632e3636382e33383720312e3432362e353920322e3139372e353973312e3532392d2e32303420322e3139372d2e35396c31342e3836342d382e363535632e3635372d2e33393420312e3230342d2e393520312e3538392d312e363136732e3539342d312e3431382e3630392d322e3138375635352e353338632e3031332d2e3737352d2e3138352d312e3533382d2e3537322d322e32303861342e323520342e32352030203020302d312e3632352d312e3539356c2d31342e3939332d382e3738367a222066696c6c3d2223666666222f3e3c646566733e3c6c696e6561724772616469656e742069643d2242222078313d2230222079313d2230222078323d22323730222079323d2232373022206772616469656e74556e6974733d227573657253706163654f6e557365223e3c73746f702073746f702d636f6c6f723d2223636235656565222f3e3c73746f70206f66667365743d2231222073746f702d636f6c6f723d2223306364376534222073746f702d6f7061636974793d222e3939222f3e3c2f6c696e6561724772616469656e743e3c2f646566733e3c7465787420783d2233322e352220793d223233312220666f6e742d73697a653d223237222066696c6c3d2223666666222066696c7465723d2275726c282341292220666f6e742d66616d696c793d22506c7573204a616b617274612053616e732c44656a6156752053616e732c4e6f746f20436f6c6f7220456d6f6a692c4170706c6520436f6c6f7220456d6f6a692c73616e732d73657269662220666f6e742d7765696768743d22626f6c64223e",
  "linkReferences": {},
  "deployedLinkReferences": {}
}